{
  "_format": "hh-sol-artifact-1",
  "contractName": "MOKLotteryToken",
  "sourceName": "contracts/MOKLotteryToken.sol",
  "abi": [
    {
      "inputs": [
        {
          "internalType": "uint256",
          "name": "initialSupply",
          "type": "uint256"
        }
      ],
      "stateMutability": "nonpayable",
      "type": "constructor"
    },
    {
      "anonymous": false,
      "inputs": [
        {
          "indexed": true,
          "internalType": "address",
          "name": "owner",
          "type": "address"
        },
        {
          "indexed": true,
          "internalType": "address",
          "name": "spender",
          "type": "address"
        },
        {
          "indexed": false,
          "internalType": "uint256",
          "name": "value",
          "type": "uint256"
        }
      ],
      "name": "Approval",
      "type": "event"
    },
    {
      "anonymous": false,
      "inputs": [
        {
          "indexed": true,
          "internalType": "address",
          "name": "from",
          "type": "address"
        },
        {
          "indexed": true,
          "internalType": "address",
          "name": "to",
          "type": "address"
        },
        {
          "indexed": false,
          "internalType": "uint256",
          "name": "value",
          "type": "uint256"
        }
      ],
      "name": "Transfer",
      "type": "event"
    },
    {
      "inputs": [
        {
          "internalType": "address",
          "name": "owner",
          "type": "address"
        },
        {
          "internalType": "address",
          "name": "spender",
          "type": "address"
        }
      ],
      "name": "allowance",
      "outputs": [
        {
          "internalType": "uint256",
          "name": "",
          "type": "uint256"
        }
      ],
      "stateMutability": "view",
      "type": "function"
    },
    {
      "inputs": [
        {
          "internalType": "address",
          "name": "spender",
          "type": "address"
        },
        {
          "internalType": "uint256",
          "name": "amount",
          "type": "uint256"
        }
      ],
      "name": "approve",
      "outputs": [
        {
          "internalType": "bool",
          "name": "",
          "type": "bool"
        }
      ],
      "stateMutability": "nonpayable",
      "type": "function"
    },
    {
      "inputs": [
        {
          "internalType": "address",
          "name": "account",
          "type": "address"
        }
      ],
      "name": "balanceOf",
      "outputs": [
        {
          "internalType": "uint256",
          "name": "",
          "type": "uint256"
        }
      ],
      "stateMutability": "view",
      "type": "function"
    },
    {
      "inputs": [],
      "name": "decimals",
      "outputs": [
        {
          "internalType": "uint8",
          "name": "",
          "type": "uint8"
        }
      ],
      "stateMutability": "view",
      "type": "function"
    },
    {
      "inputs": [
        {
          "internalType": "address",
          "name": "spender",
          "type": "address"
        },
        {
          "internalType": "uint256",
          "name": "subtractedValue",
          "type": "uint256"
        }
      ],
      "name": "decreaseAllowance",
      "outputs": [
        {
          "internalType": "bool",
          "name": "",
          "type": "bool"
        }
      ],
      "stateMutability": "nonpayable",
      "type": "function"
    },
    {
      "inputs": [],
      "name": "getSome",
      "outputs": [],
      "stateMutability": "nonpayable",
      "type": "function"
    },
    {
      "inputs": [
        {
          "internalType": "address",
          "name": "spender",
          "type": "address"
        },
        {
          "internalType": "uint256",
          "name": "addedValue",
          "type": "uint256"
        }
      ],
      "name": "increaseAllowance",
      "outputs": [
        {
          "internalType": "bool",
          "name": "",
          "type": "bool"
        }
      ],
      "stateMutability": "nonpayable",
      "type": "function"
    },
    {
      "inputs": [],
      "name": "name",
      "outputs": [
        {
          "internalType": "string",
          "name": "",
          "type": "string"
        }
      ],
      "stateMutability": "view",
      "type": "function"
    },
    {
      "inputs": [],
      "name": "symbol",
      "outputs": [
        {
          "internalType": "string",
          "name": "",
          "type": "string"
        }
      ],
      "stateMutability": "view",
      "type": "function"
    },
    {
      "inputs": [],
      "name": "totalSupply",
      "outputs": [
        {
          "internalType": "uint256",
          "name": "",
          "type": "uint256"
        }
      ],
      "stateMutability": "view",
      "type": "function"
    },
    {
      "inputs": [
        {
          "internalType": "address",
          "name": "recipient",
          "type": "address"
        },
        {
          "internalType": "uint256",
          "name": "amount",
          "type": "uint256"
        }
      ],
      "name": "transfer",
      "outputs": [
        {
          "internalType": "bool",
          "name": "",
          "type": "bool"
        }
      ],
      "stateMutability": "nonpayable",
      "type": "function"
    },
    {
      "inputs": [
        {
          "internalType": "address",
          "name": "sender",
          "type": "address"
        },
        {
          "internalType": "address",
          "name": "recipient",
          "type": "address"
        },
        {
          "internalType": "uint256",
          "name": "amount",
          "type": "uint256"
        }
      ],
      "name": "transferFrom",
      "outputs": [
        {
          "internalType": "bool",
          "name": "",
          "type": "bool"
        }
      ],
      "stateMutability": "nonpayable",
      "type": "function"
    }
  ],
  "bytecode": "0x60806040523480156200001157600080fd5b5060405162001ae138038062001ae1833981810160405281019062000037919062000321565b6040518060400160405280601181526020017f4d4f4b204c6f747465727920546f6b656e0000000000000000000000000000008152506040518060400160405280600381526020017f4d4c5400000000000000000000000000000000000000000000000000000000008152508160039080519060200190620000bb9291906200025a565b508060049080519060200190620000d49291906200025a565b505050620000e93382620000f060201b60201c565b5062000513565b600073ffffffffffffffffffffffffffffffffffffffff168273ffffffffffffffffffffffffffffffffffffffff16141562000163576040517f08c379a00000000000000000000000000000000000000000000000000000000081526004016200015a9062000385565b60405180910390fd5b62000177600083836200025560201b60201c565b80600260008282546200018b9190620003d5565b92505081905550806000808473ffffffffffffffffffffffffffffffffffffffff1673ffffffffffffffffffffffffffffffffffffffff1681526020019081526020016000206000828254620001e29190620003d5565b925050819055508173ffffffffffffffffffffffffffffffffffffffff16600073ffffffffffffffffffffffffffffffffffffffff167fddf252ad1be2c89b69c2b068fc378daa952ba7f163c4a11628f55a4df523b3ef83604051620002499190620003a7565b60405180910390a35050565b505050565b82805462000268906200043c565b90600052602060002090601f0160209004810192826200028c5760008555620002d8565b82601f10620002a757805160ff1916838001178555620002d8565b82800160010185558215620002d8579182015b82811115620002d7578251825591602001919060010190620002ba565b5b509050620002e79190620002eb565b5090565b5b8082111562000306576000816000905550600101620002ec565b5090565b6000815190506200031b81620004f9565b92915050565b6000602082840312156200033457600080fd5b600062000344848285016200030a565b91505092915050565b60006200035c601f83620003c4565b91506200036982620004d0565b602082019050919050565b6200037f8162000432565b82525050565b60006020820190508181036000830152620003a0816200034d565b9050919050565b6000602082019050620003be600083018462000374565b92915050565b600082825260208201905092915050565b6000620003e28262000432565b9150620003ef8362000432565b9250827fffffffffffffffffffffffffffffffffffffffffffffffffffffffffffffffff0382111562000427576200042662000472565b5b828201905092915050565b6000819050919050565b600060028204905060018216806200045557607f821691505b602082108114156200046c576200046b620004a1565b5b50919050565b7f4e487b7100000000000000000000000000000000000000000000000000000000600052601160045260246000fd5b7f4e487b7100000000000000000000000000000000000000000000000000000000600052602260045260246000fd5b7f45524332303a206d696e7420746f20746865207a65726f206164647265737300600082015250565b620005048162000432565b81146200051057600080fd5b50565b6115be80620005236000396000f3fe608060405234801561001057600080fd5b50600436106100b45760003560e01c806370a082311161007157806370a08231146101a35780637da2e9b9146101d357806395d89b41146101dd578063a457c2d7146101fb578063a9059cbb1461022b578063dd62ed3e1461025b576100b4565b806306fdde03146100b9578063095ea7b3146100d757806318160ddd1461010757806323b872dd14610125578063313ce567146101555780633950935114610173575b600080fd5b6100c161028b565b6040516100ce9190610fe1565b60405180910390f35b6100f160048036038101906100ec9190610e0c565b61031d565b6040516100fe9190610fc6565b60405180910390f35b61010f61033b565b60405161011c9190611103565b60405180910390f35b61013f600480360381019061013a9190610dbd565b610345565b60405161014c9190610fc6565b60405180910390f35b61015d610446565b60405161016a919061111e565b60405180910390f35b61018d60048036038101906101889190610e0c565b61044f565b60405161019a9190610fc6565b60405180910390f35b6101bd60048036038101906101b89190610d58565b6104fb565b6040516101ca9190611103565b60405180910390f35b6101db610543565b005b6101e5610558565b6040516101f29190610fe1565b60405180910390f35b61021560048036038101906102109190610e0c565b6105ea565b6040516102229190610fc6565b60405180910390f35b61024560048036038101906102409190610e0c565b6106de565b6040516102529190610fc6565b60405180910390f35b61027560048036038101906102709190610d81565b6106fc565b6040516102829190611103565b60405180910390f35b60606003805461029a90611267565b80601f01602080910402602001604051908101604052809291908181526020018280546102c690611267565b80156103135780601f106102e857610100808354040283529160200191610313565b820191906000526020600020905b8154815290600101906020018083116102f657829003601f168201915b5050505050905090565b600061033161032a610783565b848461078b565b6001905092915050565b6000600254905090565b6000610352848484610956565b6000600160008673ffffffffffffffffffffffffffffffffffffffff1673ffffffffffffffffffffffffffffffffffffffff168152602001908152602001600020600061039d610783565b73ffffffffffffffffffffffffffffffffffffffff1673ffffffffffffffffffffffffffffffffffffffff1681526020019081526020016000205490508281101561041d576040517f08c379a000000000000000000000000000000000000000000000000000000000815260040161041490611063565b60405180910390fd5b61043a85610429610783565b858461043591906111ab565b61078b565b60019150509392505050565b60006012905090565b60006104f161045c610783565b84846001600061046a610783565b73ffffffffffffffffffffffffffffffffffffffff1673ffffffffffffffffffffffffffffffffffffffff16815260200190815260200160002060008873ffffffffffffffffffffffffffffffffffffffff1673ffffffffffffffffffffffffffffffffffffffff168152602001908152602001600020546104ec9190611155565b61078b565b6001905092915050565b60008060008373ffffffffffffffffffffffffffffffffffffffff1673ffffffffffffffffffffffffffffffffffffffff168152602001908152602001600020549050919050565b6105563368056bc75e2d63100000610bd5565b565b60606004805461056790611267565b80601f016020809104026020016040519081016040528092919081815260200182805461059390611267565b80156105e05780601f106105b5576101008083540402835291602001916105e0565b820191906000526020600020905b8154815290600101906020018083116105c357829003601f168201915b5050505050905090565b600080600160006105f9610783565b73ffffffffffffffffffffffffffffffffffffffff1673ffffffffffffffffffffffffffffffffffffffff16815260200190815260200160002060008573ffffffffffffffffffffffffffffffffffffffff1673ffffffffffffffffffffffffffffffffffffffff168152602001908152602001600020549050828110156106b6576040517f08c379a00000000000000000000000000000000000000000000000000000000081526004016106ad906110c3565b60405180910390fd5b6106d36106c1610783565b8585846106ce91906111ab565b61078b565b600191505092915050565b60006106f26106eb610783565b8484610956565b6001905092915050565b6000600160008473ffffffffffffffffffffffffffffffffffffffff1673ffffffffffffffffffffffffffffffffffffffff16815260200190815260200160002060008373ffffffffffffffffffffffffffffffffffffffff1673ffffffffffffffffffffffffffffffffffffffff16815260200190815260200160002054905092915050565b600033905090565b600073ffffffffffffffffffffffffffffffffffffffff168373ffffffffffffffffffffffffffffffffffffffff1614156107fb576040517f08c379a00000000000000000000000000000000000000000000000000000000081526004016107f2906110a3565b60405180910390fd5b600073ffffffffffffffffffffffffffffffffffffffff168273ffffffffffffffffffffffffffffffffffffffff16141561086b576040517f08c379a000000000000000000000000000000000000000000000000000000000815260040161086290611023565b60405180910390fd5b80600160008573ffffffffffffffffffffffffffffffffffffffff1673ffffffffffffffffffffffffffffffffffffffff16815260200190815260200160002060008473ffffffffffffffffffffffffffffffffffffffff1673ffffffffffffffffffffffffffffffffffffffff168152602001908152602001600020819055508173ffffffffffffffffffffffffffffffffffffffff168373ffffffffffffffffffffffffffffffffffffffff167f8c5be1e5ebec7d5bd14f71427d1e84f3dd0314c0f7b2291e5b200ac8c7c3b925836040516109499190611103565b60405180910390a3505050565b600073ffffffffffffffffffffffffffffffffffffffff168373ffffffffffffffffffffffffffffffffffffffff1614156109c6576040517f08c379a00000000000000000000000000000000000000000000000000000000081526004016109bd90611083565b60405180910390fd5b600073ffffffffffffffffffffffffffffffffffffffff168273ffffffffffffffffffffffffffffffffffffffff161415610a36576040517f08c379a0000000000000000000000000000000000000000000000000000000008152600401610a2d90611003565b60405180910390fd5b610a41838383610d29565b60008060008573ffffffffffffffffffffffffffffffffffffffff1673ffffffffffffffffffffffffffffffffffffffff16815260200190815260200160002054905081811015610ac7576040517f08c379a0000000000000000000000000000000000000000000000000000000008152600401610abe90611043565b60405180910390fd5b8181610ad391906111ab565b6000808673ffffffffffffffffffffffffffffffffffffffff1673ffffffffffffffffffffffffffffffffffffffff16815260200190815260200160002081905550816000808573ffffffffffffffffffffffffffffffffffffffff1673ffffffffffffffffffffffffffffffffffffffff1681526020019081526020016000206000828254610b639190611155565b925050819055508273ffffffffffffffffffffffffffffffffffffffff168473ffffffffffffffffffffffffffffffffffffffff167fddf252ad1be2c89b69c2b068fc378daa952ba7f163c4a11628f55a4df523b3ef84604051610bc79190611103565b60405180910390a350505050565b600073ffffffffffffffffffffffffffffffffffffffff168273ffffffffffffffffffffffffffffffffffffffff161415610c45576040517f08c379a0000000000000000000000000000000000000000000000000000000008152600401610c3c906110e3565b60405180910390fd5b610c5160008383610d29565b8060026000828254610c639190611155565b92505081905550806000808473ffffffffffffffffffffffffffffffffffffffff1673ffffffffffffffffffffffffffffffffffffffff1681526020019081526020016000206000828254610cb89190611155565b925050819055508173ffffffffffffffffffffffffffffffffffffffff16600073ffffffffffffffffffffffffffffffffffffffff167fddf252ad1be2c89b69c2b068fc378daa952ba7f163c4a11628f55a4df523b3ef83604051610d1d9190611103565b60405180910390a35050565b505050565b600081359050610d3d8161155a565b92915050565b600081359050610d5281611571565b92915050565b600060208284031215610d6a57600080fd5b6000610d7884828501610d2e565b91505092915050565b60008060408385031215610d9457600080fd5b6000610da285828601610d2e565b9250506020610db385828601610d2e565b9150509250929050565b600080600060608486031215610dd257600080fd5b6000610de086828701610d2e565b9350506020610df186828701610d2e565b9250506040610e0286828701610d43565b9150509250925092565b60008060408385031215610e1f57600080fd5b6000610e2d85828601610d2e565b9250506020610e3e85828601610d43565b9150509250929050565b610e51816111f1565b82525050565b6000610e6282611139565b610e6c8185611144565b9350610e7c818560208601611234565b610e85816112f7565b840191505092915050565b6000610e9d602383611144565b9150610ea882611308565b604082019050919050565b6000610ec0602283611144565b9150610ecb82611357565b604082019050919050565b6000610ee3602683611144565b9150610eee826113a6565b604082019050919050565b6000610f06602883611144565b9150610f11826113f5565b604082019050919050565b6000610f29602583611144565b9150610f3482611444565b604082019050919050565b6000610f4c602483611144565b9150610f5782611493565b604082019050919050565b6000610f6f602583611144565b9150610f7a826114e2565b604082019050919050565b6000610f92601f83611144565b9150610f9d82611531565b602082019050919050565b610fb18161121d565b82525050565b610fc081611227565b82525050565b6000602082019050610fdb6000830184610e48565b92915050565b60006020820190508181036000830152610ffb8184610e57565b905092915050565b6000602082019050818103600083015261101c81610e90565b9050919050565b6000602082019050818103600083015261103c81610eb3565b9050919050565b6000602082019050818103600083015261105c81610ed6565b9050919050565b6000602082019050818103600083015261107c81610ef9565b9050919050565b6000602082019050818103600083015261109c81610f1c565b9050919050565b600060208201905081810360008301526110bc81610f3f565b9050919050565b600060208201905081810360008301526110dc81610f62565b9050919050565b600060208201905081810360008301526110fc81610f85565b9050919050565b60006020820190506111186000830184610fa8565b92915050565b60006020820190506111336000830184610fb7565b92915050565b600081519050919050565b600082825260208201905092915050565b60006111608261121d565b915061116b8361121d565b9250827fffffffffffffffffffffffffffffffffffffffffffffffffffffffffffffffff038211156111a05761119f611299565b5b828201905092915050565b60006111b68261121d565b91506111c18361121d565b9250828210156111d4576111d3611299565b5b828203905092915050565b60006111ea826111fd565b9050919050565b60008115159050919050565b600073ffffffffffffffffffffffffffffffffffffffff82169050919050565b6000819050919050565b600060ff82169050919050565b60005b83811015611252578082015181840152602081019050611237565b83811115611261576000848401525b50505050565b6000600282049050600182168061127f57607f821691505b60208210811415611293576112926112c8565b5b50919050565b7f4e487b7100000000000000000000000000000000000000000000000000000000600052601160045260246000fd5b7f4e487b7100000000000000000000000000000000000000000000000000000000600052602260045260246000fd5b6000601f19601f8301169050919050565b7f45524332303a207472616e7366657220746f20746865207a65726f206164647260008201527f6573730000000000000000000000000000000000000000000000000000000000602082015250565b7f45524332303a20617070726f766520746f20746865207a65726f20616464726560008201527f7373000000000000000000000000000000000000000000000000000000000000602082015250565b7f45524332303a207472616e7366657220616d6f756e742065786365656473206260008201527f616c616e63650000000000000000000000000000000000000000000000000000602082015250565b7f45524332303a207472616e7366657220616d6f756e742065786365656473206160008201527f6c6c6f77616e6365000000000000000000000000000000000000000000000000602082015250565b7f45524332303a207472616e736665722066726f6d20746865207a65726f20616460008201527f6472657373000000000000000000000000000000000000000000000000000000602082015250565b7f45524332303a20617070726f76652066726f6d20746865207a65726f2061646460008201527f7265737300000000000000000000000000000000000000000000000000000000602082015250565b7f45524332303a2064656372656173656420616c6c6f77616e63652062656c6f7760008201527f207a65726f000000000000000000000000000000000000000000000000000000602082015250565b7f45524332303a206d696e7420746f20746865207a65726f206164647265737300600082015250565b611563816111df565b811461156e57600080fd5b50565b61157a8161121d565b811461158557600080fd5b5056fea26469706673582212207dd2e32365be7c37e53613d40c807aa471e581a0e0271338a43fb4aaa890f24264736f6c63430008040033",
  "linkReferences": {},
  "deployedLinkReferences": {}
}