{
  "_format": "hh-sol-artifact-1",
  "contractName": "Lottery",
  "sourceName": "contracts/Lottery.sol",
  "abi": [
    {
      "inputs": [],
      "stateMutability": "nonpayable",
      "type": "constructor"
    },
    {
      "anonymous": false,
      "inputs": [
        {
          "indexed": false,
          "internalType": "uint256",
          "name": "timestamp",
          "type": "uint256"
        }
      ],
      "name": "LotteryChange",
      "type": "event"
    },
    {
      "anonymous": false,
      "inputs": [
        {
          "indexed": true,
          "internalType": "address",
          "name": "previousOwner",
          "type": "address"
        },
        {
          "indexed": true,
          "internalType": "address",
          "name": "newOwner",
          "type": "address"
        }
      ],
      "name": "OwnershipTransferred",
      "type": "event"
    },
    {
      "anonymous": false,
      "inputs": [
        {
          "indexed": true,
          "internalType": "bytes32",
          "name": "role",
          "type": "bytes32"
        },
        {
          "indexed": true,
          "internalType": "bytes32",
          "name": "previousAdminRole",
          "type": "bytes32"
        },
        {
          "indexed": true,
          "internalType": "bytes32",
          "name": "newAdminRole",
          "type": "bytes32"
        }
      ],
      "name": "RoleAdminChanged",
      "type": "event"
    },
    {
      "anonymous": false,
      "inputs": [
        {
          "indexed": true,
          "internalType": "bytes32",
          "name": "role",
          "type": "bytes32"
        },
        {
          "indexed": true,
          "internalType": "address",
          "name": "account",
          "type": "address"
        },
        {
          "indexed": true,
          "internalType": "address",
          "name": "sender",
          "type": "address"
        }
      ],
      "name": "RoleGranted",
      "type": "event"
    },
    {
      "anonymous": false,
      "inputs": [
        {
          "indexed": true,
          "internalType": "bytes32",
          "name": "role",
          "type": "bytes32"
        },
        {
          "indexed": true,
          "internalType": "address",
          "name": "account",
          "type": "address"
        },
        {
          "indexed": true,
          "internalType": "address",
          "name": "sender",
          "type": "address"
        }
      ],
      "name": "RoleRevoked",
      "type": "event"
    },
    {
      "inputs": [],
      "name": "DEFAULT_ADMIN_ROLE",
      "outputs": [
        {
          "internalType": "bytes32",
          "name": "",
          "type": "bytes32"
        }
      ],
      "stateMutability": "view",
      "type": "function"
    },
    {
      "inputs": [],
      "name": "MOD_ROLE",
      "outputs": [
        {
          "internalType": "bytes32",
          "name": "",
          "type": "bytes32"
        }
      ],
      "stateMutability": "view",
      "type": "function"
    },
    {
      "inputs": [
        {
          "internalType": "address",
          "name": "tokenAddress",
          "type": "address"
        },
        {
          "internalType": "uint256",
          "name": "num",
          "type": "uint256"
        }
      ],
      "name": "enter",
      "outputs": [],
      "stateMutability": "nonpayable",
      "type": "function"
    },
    {
      "inputs": [],
      "name": "getMyTickets",
      "outputs": [
        {
          "internalType": "uint256[]",
          "name": "",
          "type": "uint256[]"
        }
      ],
      "stateMutability": "view",
      "type": "function"
    },
    {
      "inputs": [
        {
          "internalType": "bytes32",
          "name": "role",
          "type": "bytes32"
        }
      ],
      "name": "getRoleAdmin",
      "outputs": [
        {
          "internalType": "bytes32",
          "name": "",
          "type": "bytes32"
        }
      ],
      "stateMutability": "view",
      "type": "function"
    },
    {
      "inputs": [
        {
          "internalType": "bytes32",
          "name": "role",
          "type": "bytes32"
        },
        {
          "internalType": "address",
          "name": "account",
          "type": "address"
        }
      ],
      "name": "grantRole",
      "outputs": [],
      "stateMutability": "nonpayable",
      "type": "function"
    },
    {
      "inputs": [
        {
          "internalType": "bytes32",
          "name": "role",
          "type": "bytes32"
        },
        {
          "internalType": "address",
          "name": "account",
          "type": "address"
        }
      ],
      "name": "hasRole",
      "outputs": [
        {
          "internalType": "bool",
          "name": "",
          "type": "bool"
        }
      ],
      "stateMutability": "view",
      "type": "function"
    },
    {
      "inputs": [],
      "name": "lockedUntil",
      "outputs": [
        {
          "internalType": "uint256",
          "name": "",
          "type": "uint256"
        }
      ],
      "stateMutability": "view",
      "type": "function"
    },
    {
      "inputs": [
        {
          "internalType": "address",
          "name": "mod1",
          "type": "address"
        },
        {
          "internalType": "address",
          "name": "mod2",
          "type": "address"
        }
      ],
      "name": "mod",
      "outputs": [],
      "stateMutability": "nonpayable",
      "type": "function"
    },
    {
      "inputs": [],
      "name": "owner",
      "outputs": [
        {
          "internalType": "address",
          "name": "",
          "type": "address"
        }
      ],
      "stateMutability": "view",
      "type": "function"
    },
    {
      "inputs": [
        {
          "internalType": "address",
          "name": "tokenAddress",
          "type": "address"
        }
      ],
      "name": "pickWinner",
      "outputs": [],
      "stateMutability": "nonpayable",
      "type": "function"
    },
    {
      "inputs": [
        {
          "internalType": "address",
          "name": "",
          "type": "address"
        },
        {
          "internalType": "uint256",
          "name": "",
          "type": "uint256"
        }
      ],
      "name": "playerTickets",
      "outputs": [
        {
          "internalType": "uint256",
          "name": "",
          "type": "uint256"
        }
      ],
      "stateMutability": "view",
      "type": "function"
    },
    {
      "inputs": [],
      "name": "prevPrizePool",
      "outputs": [
        {
          "internalType": "uint256",
          "name": "",
          "type": "uint256"
        }
      ],
      "stateMutability": "view",
      "type": "function"
    },
    {
      "inputs": [],
      "name": "prevWinningTicket",
      "outputs": [
        {
          "internalType": "uint256",
          "name": "",
          "type": "uint256"
        }
      ],
      "stateMutability": "view",
      "type": "function"
    },
    {
      "inputs": [],
      "name": "prizePool",
      "outputs": [
        {
          "internalType": "uint256",
          "name": "",
          "type": "uint256"
        }
      ],
      "stateMutability": "view",
      "type": "function"
    },
    {
      "inputs": [],
      "name": "renounceOwnership",
      "outputs": [],
      "stateMutability": "nonpayable",
      "type": "function"
    },
    {
      "inputs": [
        {
          "internalType": "bytes32",
          "name": "role",
          "type": "bytes32"
        },
        {
          "internalType": "address",
          "name": "account",
          "type": "address"
        }
      ],
      "name": "renounceRole",
      "outputs": [],
      "stateMutability": "nonpayable",
      "type": "function"
    },
    {
      "inputs": [
        {
          "internalType": "bytes32",
          "name": "role",
          "type": "bytes32"
        },
        {
          "internalType": "address",
          "name": "account",
          "type": "address"
        }
      ],
      "name": "revokeRole",
      "outputs": [],
      "stateMutability": "nonpayable",
      "type": "function"
    },
    {
      "inputs": [
        {
          "internalType": "bytes4",
          "name": "interfaceId",
          "type": "bytes4"
        }
      ],
      "name": "supportsInterface",
      "outputs": [
        {
          "internalType": "bool",
          "name": "",
          "type": "bool"
        }
      ],
      "stateMutability": "view",
      "type": "function"
    },
    {
      "inputs": [],
      "name": "ticketCounter",
      "outputs": [
        {
          "internalType": "uint256",
          "name": "",
          "type": "uint256"
        }
      ],
      "stateMutability": "view",
      "type": "function"
    },
    {
      "inputs": [],
      "name": "ticketPrice",
      "outputs": [
        {
          "internalType": "uint256",
          "name": "",
          "type": "uint256"
        }
      ],
      "stateMutability": "view",
      "type": "function"
    },
    {
      "inputs": [
        {
          "internalType": "uint256",
          "name": "",
          "type": "uint256"
        }
      ],
      "name": "ticketsArray",
      "outputs": [
        {
          "internalType": "address",
          "name": "",
          "type": "address"
        }
      ],
      "stateMutability": "view",
      "type": "function"
    },
    {
      "inputs": [
        {
          "internalType": "address",
          "name": "newOwner",
          "type": "address"
        }
      ],
      "name": "transferOwnership",
      "outputs": [],
      "stateMutability": "nonpayable",
      "type": "function"
    },
    {
      "inputs": [],
      "name": "usageFees",
      "outputs": [
        {
          "internalType": "uint256",
          "name": "",
          "type": "uint256"
        }
      ],
      "stateMutability": "view",
      "type": "function"
    },
    {
      "inputs": [
        {
          "internalType": "address",
          "name": "tokenAddress",
          "type": "address"
        }
      ],
      "name": "withdrawFees",
      "outputs": [],
      "stateMutability": "nonpayable",
      "type": "function"
    }
  ],
  "bytecode": "0x60806040523480156200001157600080fd5b506000620000246200012060201b60201c565b9050806000806101000a81548173ffffffffffffffffffffffffffffffffffffffff021916908373ffffffffffffffffffffffffffffffffffffffff1602179055508073ffffffffffffffffffffffffffffffffffffffff16600073ffffffffffffffffffffffffffffffffffffffff167f8be0079c531659141344cd1fd0a4f28419497f9722a3daafe3b4186f6b6457e060405160405180910390a350620001037f950b8f2d7415defaee398bb4898e8e094a64c725873b81952b7ab9f08d70efb3620000f76200012860201b60201c565b6200015160201b60201c565b6801158e460913d0000060088190555042600a81905550620002c3565b600033905090565b60008060009054906101000a900473ffffffffffffffffffffffffffffffffffffffff16905090565b6200016382826200016760201b60201c565b5050565b6200017982826200025860201b60201c565b6200025457600180600084815260200190815260200160002060000160008373ffffffffffffffffffffffffffffffffffffffff1673ffffffffffffffffffffffffffffffffffffffff16815260200190815260200160002060006101000a81548160ff021916908315150217905550620001f96200012060201b60201c565b73ffffffffffffffffffffffffffffffffffffffff168173ffffffffffffffffffffffffffffffffffffffff16837f2f8788117e7eff1d82e926ec794901d17c78024a50270940304540a733656f0d60405160405180910390a45b5050565b60006001600084815260200190815260200160002060000160008373ffffffffffffffffffffffffffffffffffffffff1673ffffffffffffffffffffffffffffffffffffffff16815260200190815260200160002060009054906101000a900460ff16905092915050565b6123d480620002d36000396000f3fe608060405234801561001057600080fd5b50600436106101735760003560e01c80638da5cb5b116100de578063d547741f11610097578063e932406f11610071578063e932406f14610428578063f212a12614610446578063f2fde38b14610462578063f8d33a011461047e57610173565b8063d547741f146103d0578063d7ff713a146103ec578063e1d10d851461040a57610173565b80638da5cb5b146102fa57806391d1485414610318578063a217fddf14610348578063b4f8eadd14610366578063c5a8b47014610396578063ce0617ec146103b257610173565b806344d855f11161013057806344d855f11461024a5780636001e6401461027a578063715018a614610298578063719ce73e146102a25780637e348b7d146102c05780638c4d59d0146102dc57610173565b806301ffc9a7146101785780631209b1f6146101a8578063164e68de146101c6578063248a9ca3146101e25780632f2ff15d1461021257806336568abe1461022e575b600080fd5b610192600480360381019061018d91906119de565b61049c565b60405161019f9190611d6a565b60405180910390f35b6101b0610516565b6040516101bd9190611e62565b60405180910390f35b6101e060048036038101906101db91906118af565b61051c565b005b6101fc60048036038101906101f79190611979565b61063a565b6040516102099190611d85565b60405180910390f35b61022c600480360381019061022791906119a2565b61065a565b005b610248600480360381019061024391906119a2565b610683565b005b610264600480360381019061025f9190611914565b610706565b6040516102719190611e62565b60405180910390f35b610282610737565b60405161028f9190611e62565b60405180910390f35b6102a061073d565b005b6102aa610877565b6040516102b79190611e62565b60405180910390f35b6102da60048036038101906102d59190611914565b61087d565b005b6102e46109eb565b6040516102f19190611e62565b60405180910390f35b6103026109f1565b60405161030f9190611ccd565b60405180910390f35b610332600480360381019061032d91906119a2565b610a1a565b60405161033f9190611d6a565b60405180910390f35b610350610a85565b60405161035d9190611d85565b60405180910390f35b610380600480360381019061037b9190611a07565b610a8c565b60405161038d9190611ccd565b60405180910390f35b6103b060048036038101906103ab91906118af565b610acb565b005b6103ba610c9a565b6040516103c79190611e62565b60405180910390f35b6103ea60048036038101906103e591906119a2565b610ca0565b005b6103f4610cc9565b6040516104019190611e62565b60405180910390f35b610412610ccf565b60405161041f9190611d48565b60405180910390f35b610430610d64565b60405161043d9190611d85565b60405180910390f35b610460600480360381019061045b91906118d8565b610d88565b005b61047c600480360381019061047791906118af565b610e5c565b005b610486611005565b6040516104939190611e62565b60405180910390f35b60007f7965db0b000000000000000000000000000000000000000000000000000000007bffffffffffffffffffffffffffffffffffffffffffffffffffffffff1916827bffffffffffffffffffffffffffffffffffffffffffffffffffffffff1916148061050f575061050e8261100b565b5b9050919050565b60085481565b610524611075565b73ffffffffffffffffffffffffffffffffffffffff166105426109f1565b73ffffffffffffffffffffffffffffffffffffffff1614610598576040517f08c379a000000000000000000000000000000000000000000000000000000000815260040161058f90611e22565b60405180910390fd5b8073ffffffffffffffffffffffffffffffffffffffff1663a9059cbb6105bc6109f1565b6009546040518363ffffffff1660e01b81526004016105dc929190611d1f565b602060405180830381600087803b1580156105f657600080fd5b505af115801561060a573d6000803e3d6000fd5b505050506040513d601f19601f8201168201806040525081019061062e9190611950565b50600060098190555050565b600060016000838152602001908152602001600020600101549050919050565b6106638261063a565b6106748161066f611075565b61107d565b61067e838361111a565b505050565b61068b611075565b73ffffffffffffffffffffffffffffffffffffffff168173ffffffffffffffffffffffffffffffffffffffff16146106f8576040517f08c379a00000000000000000000000000000000000000000000000000000000081526004016106ef90611e42565b60405180910390fd5b61070282826111fa565b5050565b6003602052816000526040600020818154811061072257600080fd5b90600052602060002001600091509150505481565b60075481565b610745611075565b73ffffffffffffffffffffffffffffffffffffffff166107636109f1565b73ffffffffffffffffffffffffffffffffffffffff16146107b9576040517f08c379a00000000000000000000000000000000000000000000000000000000081526004016107b090611e22565b60405180910390fd5b600073ffffffffffffffffffffffffffffffffffffffff1660008054906101000a900473ffffffffffffffffffffffffffffffffffffffff1673ffffffffffffffffffffffffffffffffffffffff167f8be0079c531659141344cd1fd0a4f28419497f9722a3daafe3b4186f6b6457e060405160405180910390a360008060006101000a81548173ffffffffffffffffffffffffffffffffffffffff021916908373ffffffffffffffffffffffffffffffffffffffff160217905550565b60065481565b600a54421161088b57600080fd5b60006008548261089b9190611f64565b90508273ffffffffffffffffffffffffffffffffffffffff166323b872dd3330846040518463ffffffff1660e01b81526004016108da93929190611ce8565b602060405180830381600087803b1580156108f457600080fd5b505af1158015610908573d6000803e3d6000fd5b505050506040513d601f19601f8201168201806040525081019061092c9190611950565b5060005b82811015610953576109406112dc565b808061094b906120cd565b915050610930565b50600060056064836109659190611f33565b61096f9190611f64565b9050808261097d9190611fbe565b6006600082825461098e9190611edd565b9250508190555080600960008282546109a79190611edd565b925050819055507fe94d0e2f1a2c072b5ba131e11f785b433c81f7051cd4f47c87fb151932c3d7d4426040516109dd9190611e62565b60405180910390a150505050565b60045481565b60008060009054906101000a900473ffffffffffffffffffffffffffffffffffffffff16905090565b60006001600084815260200190815260200160002060000160008373ffffffffffffffffffffffffffffffffffffffff1673ffffffffffffffffffffffffffffffffffffffff16815260200190815260200160002060009054906101000a900460ff16905092915050565b6000801b81565b60028181548110610a9c57600080fd5b906000526020600020016000915054906101000a900473ffffffffffffffffffffffffffffffffffffffff1681565b610af57f950b8f2d7415defaee398bb4898e8e094a64c725873b81952b7ab9f08d70efb333610a1a565b610b34576040517f08c379a0000000000000000000000000000000000000000000000000000000008152600401610b2b90611e02565b60405180910390fd5b600a544211610b4257600080fd5b61012c42610b509190611edd565b600a819055506000610b606113c1565b90508173ffffffffffffffffffffffffffffffffffffffff1663a9059cbb60028381548110610bb8577f4e487b7100000000000000000000000000000000000000000000000000000000600052603260045260246000fd5b9060005260206000200160009054906101000a900473ffffffffffffffffffffffffffffffffffffffff166006546040518363ffffffff1660e01b8152600401610c03929190611d1f565b602060405180830381600087803b158015610c1d57600080fd5b505af1158015610c31573d6000803e3d6000fd5b505050506040513d601f19601f82011682018060405250810190610c559190611950565b50610c5f81611406565b7fe94d0e2f1a2c072b5ba131e11f785b433c81f7051cd4f47c87fb151932c3d7d442604051610c8e9190611e62565b60405180910390a15050565b600a5481565b610ca98261063a565b610cba81610cb5611075565b61107d565b610cc483836111fa565b505050565b60095481565b6060600360003373ffffffffffffffffffffffffffffffffffffffff1673ffffffffffffffffffffffffffffffffffffffff168152602001908152602001600020805480602002602001604051908101604052809291908181526020018280548015610d5a57602002820191906000526020600020905b815481526020019060010190808311610d46575b5050505050905090565b7f950b8f2d7415defaee398bb4898e8e094a64c725873b81952b7ab9f08d70efb381565b610d90611075565b73ffffffffffffffffffffffffffffffffffffffff16610dae6109f1565b73ffffffffffffffffffffffffffffffffffffffff1614610e04576040517f08c379a0000000000000000000000000000000000000000000000000000000008152600401610dfb90611e22565b60405180910390fd5b610e2e7f950b8f2d7415defaee398bb4898e8e094a64c725873b81952b7ab9f08d70efb383611500565b610e587f950b8f2d7415defaee398bb4898e8e094a64c725873b81952b7ab9f08d70efb382611500565b5050565b610e64611075565b73ffffffffffffffffffffffffffffffffffffffff16610e826109f1565b73ffffffffffffffffffffffffffffffffffffffff1614610ed8576040517f08c379a0000000000000000000000000000000000000000000000000000000008152600401610ecf90611e22565b60405180910390fd5b600073ffffffffffffffffffffffffffffffffffffffff168173ffffffffffffffffffffffffffffffffffffffff161415610f48576040517f08c379a0000000000000000000000000000000000000000000000000000000008152600401610f3f90611de2565b60405180910390fd5b8073ffffffffffffffffffffffffffffffffffffffff1660008054906101000a900473ffffffffffffffffffffffffffffffffffffffff1673ffffffffffffffffffffffffffffffffffffffff167f8be0079c531659141344cd1fd0a4f28419497f9722a3daafe3b4186f6b6457e060405160405180910390a3806000806101000a81548173ffffffffffffffffffffffffffffffffffffffff021916908373ffffffffffffffffffffffffffffffffffffffff16021790555050565b60055481565b60007f01ffc9a7000000000000000000000000000000000000000000000000000000007bffffffffffffffffffffffffffffffffffffffffffffffffffffffff1916827bffffffffffffffffffffffffffffffffffffffffffffffffffffffff1916149050919050565b600033905090565b6110878282610a1a565b611116576110ac8173ffffffffffffffffffffffffffffffffffffffff16601461150e565b6110ba8360001c602061150e565b6040516020016110cb929190611c67565b6040516020818303038152906040526040517f08c379a000000000000000000000000000000000000000000000000000000000815260040161110d9190611da0565b60405180910390fd5b5050565b6111248282610a1a565b6111f657600180600084815260200190815260200160002060000160008373ffffffffffffffffffffffffffffffffffffffff1673ffffffffffffffffffffffffffffffffffffffff16815260200190815260200160002060006101000a81548160ff02191690831515021790555061119b611075565b73ffffffffffffffffffffffffffffffffffffffff168173ffffffffffffffffffffffffffffffffffffffff16837f2f8788117e7eff1d82e926ec794901d17c78024a50270940304540a733656f0d60405160405180910390a45b5050565b6112048282610a1a565b156112d85760006001600084815260200190815260200160002060000160008373ffffffffffffffffffffffffffffffffffffffff1673ffffffffffffffffffffffffffffffffffffffff16815260200190815260200160002060006101000a81548160ff02191690831515021790555061127d611075565b73ffffffffffffffffffffffffffffffffffffffff168173ffffffffffffffffffffffffffffffffffffffff16837ff6391f5c32d9c69d2a47ea670b442974b53935d1edc7fd64eb21e047a839171b60405160405180910390a45b5050565b6002339080600181540180825580915050600190039060005260206000200160009091909190916101000a81548173ffffffffffffffffffffffffffffffffffffffff021916908373ffffffffffffffffffffffffffffffffffffffff160217905550600360003373ffffffffffffffffffffffffffffffffffffffff1673ffffffffffffffffffffffffffffffffffffffff1681526020019081526020016000206004549080600181540180825580915050600190039060005260206000200160009091909190915055600460008154809291906113ba906120cd565b9190505550565b60008044426040516020016113d7929190611ca1565b6040516020818303038152906040528051906020012060001c9050600454816114009190612120565b91505090565b80600581905550600654600781905550600060068190555060006004819055506000600190505b6002805490508110156114fc576003600060028381548110611478577f4e487b7100000000000000000000000000000000000000000000000000000000600052603260045260246000fd5b9060005260206000200160009054906101000a900473ffffffffffffffffffffffffffffffffffffffff1673ffffffffffffffffffffffffffffffffffffffff1673ffffffffffffffffffffffffffffffffffffffff16815260200190815260200160002060006114e99190611808565b80806114f4906120cd565b91505061142d565b5050565b61150a828261111a565b5050565b6060600060028360026115219190611f64565b61152b9190611edd565b67ffffffffffffffff81111561156a577f4e487b7100000000000000000000000000000000000000000000000000000000600052604160045260246000fd5b6040519080825280601f01601f19166020018201604052801561159c5781602001600182028036833780820191505090505b5090507f3000000000000000000000000000000000000000000000000000000000000000816000815181106115fa577f4e487b7100000000000000000000000000000000000000000000000000000000600052603260045260246000fd5b60200101907effffffffffffffffffffffffffffffffffffffffffffffffffffffffffffff1916908160001a9053507f780000000000000000000000000000000000000000000000000000000000000081600181518110611684577f4e487b7100000000000000000000000000000000000000000000000000000000600052603260045260246000fd5b60200101907effffffffffffffffffffffffffffffffffffffffffffffffffffffffffffff1916908160001a905350600060018460026116c49190611f64565b6116ce9190611edd565b90505b60018111156117ba577f3031323334353637383961626364656600000000000000000000000000000000600f861660108110611736577f4e487b7100000000000000000000000000000000000000000000000000000000600052603260045260246000fd5b1a60f81b828281518110611773577f4e487b7100000000000000000000000000000000000000000000000000000000600052603260045260246000fd5b60200101907effffffffffffffffffffffffffffffffffffffffffffffffffffffffffffff1916908160001a905350600485901c9450806117b3906120a3565b90506116d1565b50600084146117fe576040517f08c379a00000000000000000000000000000000000000000000000000000000081526004016117f590611dc2565b60405180910390fd5b8091505092915050565b50805460008255906000526020600020908101906118269190611829565b50565b5b8082111561184257600081600090555060010161182a565b5090565b6000813590506118558161232b565b92915050565b60008151905061186a81612342565b92915050565b60008135905061187f81612359565b92915050565b60008135905061189481612370565b92915050565b6000813590506118a981612387565b92915050565b6000602082840312156118c157600080fd5b60006118cf84828501611846565b91505092915050565b600080604083850312156118eb57600080fd5b60006118f985828601611846565b925050602061190a85828601611846565b9150509250929050565b6000806040838503121561192757600080fd5b600061193585828601611846565b92505060206119468582860161189a565b9150509250929050565b60006020828403121561196257600080fd5b60006119708482850161185b565b91505092915050565b60006020828403121561198b57600080fd5b600061199984828501611870565b91505092915050565b600080604083850312156119b557600080fd5b60006119c385828601611870565b92505060206119d485828601611846565b9150509250929050565b6000602082840312156119f057600080fd5b60006119fe84828501611885565b91505092915050565b600060208284031215611a1957600080fd5b6000611a278482850161189a565b91505092915050565b6000611a3c8383611c32565b60208301905092915050565b611a5181611ff2565b82525050565b6000611a6282611e8d565b611a6c8185611eb0565b9350611a7783611e7d565b8060005b83811015611aa8578151611a8f8882611a30565b9750611a9a83611ea3565b925050600181019050611a7b565b5085935050505092915050565b611abe81612004565b82525050565b611acd81612010565b82525050565b6000611ade82611e98565b611ae88185611ec1565b9350611af8818560208601612070565b611b01816121af565b840191505092915050565b6000611b1782611e98565b611b218185611ed2565b9350611b31818560208601612070565b80840191505092915050565b6000611b4a602083611ec1565b9150611b55826121c0565b602082019050919050565b6000611b6d602683611ec1565b9150611b78826121e9565b604082019050919050565b6000611b90601483611ec1565b9150611b9b82612238565b602082019050919050565b6000611bb3602083611ec1565b9150611bbe82612261565b602082019050919050565b6000611bd6601783611ed2565b9150611be18261228a565b601782019050919050565b6000611bf9601183611ed2565b9150611c04826122b3565b601182019050919050565b6000611c1c602f83611ec1565b9150611c27826122dc565b604082019050919050565b611c3b81612066565b82525050565b611c4a81612066565b82525050565b611c61611c5c82612066565b612116565b82525050565b6000611c7282611bc9565b9150611c7e8285611b0c565b9150611c8982611bec565b9150611c958284611b0c565b91508190509392505050565b6000611cad8285611c50565b602082019150611cbd8284611c50565b6020820191508190509392505050565b6000602082019050611ce26000830184611a48565b92915050565b6000606082019050611cfd6000830186611a48565b611d0a6020830185611a48565b611d176040830184611c41565b949350505050565b6000604082019050611d346000830185611a48565b611d416020830184611c41565b9392505050565b60006020820190508181036000830152611d628184611a57565b905092915050565b6000602082019050611d7f6000830184611ab5565b92915050565b6000602082019050611d9a6000830184611ac4565b92915050565b60006020820190508181036000830152611dba8184611ad3565b905092915050565b60006020820190508181036000830152611ddb81611b3d565b9050919050565b60006020820190508181036000830152611dfb81611b60565b9050919050565b60006020820190508181036000830152611e1b81611b83565b9050919050565b60006020820190508181036000830152611e3b81611ba6565b9050919050565b60006020820190508181036000830152611e5b81611c0f565b9050919050565b6000602082019050611e776000830184611c41565b92915050565b6000819050602082019050919050565b600081519050919050565b600081519050919050565b6000602082019050919050565b600082825260208201905092915050565b600082825260208201905092915050565b600081905092915050565b6000611ee882612066565b9150611ef383612066565b9250827fffffffffffffffffffffffffffffffffffffffffffffffffffffffffffffffff03821115611f2857611f27612151565b5b828201905092915050565b6000611f3e82612066565b9150611f4983612066565b925082611f5957611f58612180565b5b828204905092915050565b6000611f6f82612066565b9150611f7a83612066565b9250817fffffffffffffffffffffffffffffffffffffffffffffffffffffffffffffffff0483118215151615611fb357611fb2612151565b5b828202905092915050565b6000611fc982612066565b9150611fd483612066565b925082821015611fe757611fe6612151565b5b828203905092915050565b6000611ffd82612046565b9050919050565b60008115159050919050565b6000819050919050565b60007fffffffff0000000000000000000000000000000000000000000000000000000082169050919050565b600073ffffffffffffffffffffffffffffffffffffffff82169050919050565b6000819050919050565b60005b8381101561208e578082015181840152602081019050612073565b8381111561209d576000848401525b50505050565b60006120ae82612066565b915060008214156120c2576120c1612151565b5b600182039050919050565b60006120d882612066565b91507fffffffffffffffffffffffffffffffffffffffffffffffffffffffffffffffff82141561210b5761210a612151565b5b600182019050919050565b6000819050919050565b600061212b82612066565b915061213683612066565b92508261214657612145612180565b5b828206905092915050565b7f4e487b7100000000000000000000000000000000000000000000000000000000600052601160045260246000fd5b7f4e487b7100000000000000000000000000000000000000000000000000000000600052601260045260246000fd5b6000601f19601f8301169050919050565b7f537472696e67733a20686578206c656e67746820696e73756666696369656e74600082015250565b7f4f776e61626c653a206e6577206f776e657220697320746865207a65726f206160008201527f6464726573730000000000000000000000000000000000000000000000000000602082015250565b7f43616c6c6572206d7573742062652061206d6f64000000000000000000000000600082015250565b7f4f776e61626c653a2063616c6c6572206973206e6f7420746865206f776e6572600082015250565b7f416363657373436f6e74726f6c3a206163636f756e7420000000000000000000600082015250565b7f206973206d697373696e6720726f6c6520000000000000000000000000000000600082015250565b7f416363657373436f6e74726f6c3a2063616e206f6e6c792072656e6f756e636560008201527f20726f6c657320666f722073656c660000000000000000000000000000000000602082015250565b61233481611ff2565b811461233f57600080fd5b50565b61234b81612004565b811461235657600080fd5b50565b61236281612010565b811461236d57600080fd5b50565b6123798161201a565b811461238457600080fd5b50565b61239081612066565b811461239b57600080fd5b5056fea26469706673582212209c892e30f4baca1594beed07b7f928d1096481731aa2af9263a176cd84c9069064736f6c63430008040033",
  "linkReferences": {},
  "deployedLinkReferences": {}
}