{
  "_format": "hh-sol-artifact-1",
  "contractName": "Lottery",
  "sourceName": "contracts/Lottery.sol",
  "abi": [
    {
      "inputs": [],
      "stateMutability": "nonpayable",
      "type": "constructor"
    },
    {
      "anonymous": false,
      "inputs": [
        {
          "indexed": false,
          "internalType": "uint256",
          "name": "timestamp",
          "type": "uint256"
        }
      ],
      "name": "LotteryChange",
      "type": "event"
    },
    {
      "anonymous": false,
      "inputs": [
        {
          "indexed": true,
          "internalType": "address",
          "name": "previousOwner",
          "type": "address"
        },
        {
          "indexed": true,
          "internalType": "address",
          "name": "newOwner",
          "type": "address"
        }
      ],
      "name": "OwnershipTransferred",
      "type": "event"
    },
    {
      "anonymous": false,
      "inputs": [
        {
          "indexed": true,
          "internalType": "bytes32",
          "name": "role",
          "type": "bytes32"
        },
        {
          "indexed": true,
          "internalType": "bytes32",
          "name": "previousAdminRole",
          "type": "bytes32"
        },
        {
          "indexed": true,
          "internalType": "bytes32",
          "name": "newAdminRole",
          "type": "bytes32"
        }
      ],
      "name": "RoleAdminChanged",
      "type": "event"
    },
    {
      "anonymous": false,
      "inputs": [
        {
          "indexed": true,
          "internalType": "bytes32",
          "name": "role",
          "type": "bytes32"
        },
        {
          "indexed": true,
          "internalType": "address",
          "name": "account",
          "type": "address"
        },
        {
          "indexed": true,
          "internalType": "address",
          "name": "sender",
          "type": "address"
        }
      ],
      "name": "RoleGranted",
      "type": "event"
    },
    {
      "anonymous": false,
      "inputs": [
        {
          "indexed": true,
          "internalType": "bytes32",
          "name": "role",
          "type": "bytes32"
        },
        {
          "indexed": true,
          "internalType": "address",
          "name": "account",
          "type": "address"
        },
        {
          "indexed": true,
          "internalType": "address",
          "name": "sender",
          "type": "address"
        }
      ],
      "name": "RoleRevoked",
      "type": "event"
    },
    {
      "inputs": [],
      "name": "DEFAULT_ADMIN_ROLE",
      "outputs": [
        {
          "internalType": "bytes32",
          "name": "",
          "type": "bytes32"
        }
      ],
      "stateMutability": "view",
      "type": "function"
    },
    {
      "inputs": [],
      "name": "MOD_ROLE",
      "outputs": [
        {
          "internalType": "bytes32",
          "name": "",
          "type": "bytes32"
        }
      ],
      "stateMutability": "view",
      "type": "function"
    },
    {
      "inputs": [
        {
          "internalType": "address",
          "name": "tokenAddress",
          "type": "address"
        },
        {
          "internalType": "uint256",
          "name": "num",
          "type": "uint256"
        }
      ],
      "name": "enter",
      "outputs": [],
      "stateMutability": "nonpayable",
      "type": "function"
    },
    {
      "inputs": [],
      "name": "getMyTickets",
      "outputs": [
        {
          "internalType": "uint256[]",
          "name": "",
          "type": "uint256[]"
        }
      ],
      "stateMutability": "view",
      "type": "function"
    },
    {
      "inputs": [
        {
          "internalType": "bytes32",
          "name": "role",
          "type": "bytes32"
        }
      ],
      "name": "getRoleAdmin",
      "outputs": [
        {
          "internalType": "bytes32",
          "name": "",
          "type": "bytes32"
        }
      ],
      "stateMutability": "view",
      "type": "function"
    },
    {
      "inputs": [
        {
          "internalType": "bytes32",
          "name": "role",
          "type": "bytes32"
        },
        {
          "internalType": "address",
          "name": "account",
          "type": "address"
        }
      ],
      "name": "grantRole",
      "outputs": [],
      "stateMutability": "nonpayable",
      "type": "function"
    },
    {
      "inputs": [
        {
          "internalType": "bytes32",
          "name": "role",
          "type": "bytes32"
        },
        {
          "internalType": "address",
          "name": "account",
          "type": "address"
        }
      ],
      "name": "hasRole",
      "outputs": [
        {
          "internalType": "bool",
          "name": "",
          "type": "bool"
        }
      ],
      "stateMutability": "view",
      "type": "function"
    },
    {
      "inputs": [],
      "name": "lockedUntil",
      "outputs": [
        {
          "internalType": "uint256",
          "name": "",
          "type": "uint256"
        }
      ],
      "stateMutability": "view",
      "type": "function"
    },
    {
      "inputs": [
        {
          "internalType": "address",
          "name": "mod1",
          "type": "address"
        },
        {
          "internalType": "address",
          "name": "mod2",
          "type": "address"
        }
      ],
      "name": "mod",
      "outputs": [],
      "stateMutability": "nonpayable",
      "type": "function"
    },
    {
      "inputs": [],
      "name": "owner",
      "outputs": [
        {
          "internalType": "address",
          "name": "",
          "type": "address"
        }
      ],
      "stateMutability": "view",
      "type": "function"
    },
    {
      "inputs": [
        {
          "internalType": "address",
          "name": "tokenAddress",
          "type": "address"
        }
      ],
      "name": "pickWinner",
      "outputs": [],
      "stateMutability": "nonpayable",
      "type": "function"
    },
    {
      "inputs": [
        {
          "internalType": "address",
          "name": "",
          "type": "address"
        },
        {
          "internalType": "uint256",
          "name": "",
          "type": "uint256"
        }
      ],
      "name": "playerTickets",
      "outputs": [
        {
          "internalType": "uint256",
          "name": "",
          "type": "uint256"
        }
      ],
      "stateMutability": "view",
      "type": "function"
    },
    {
      "inputs": [
        {
          "internalType": "uint256",
          "name": "",
          "type": "uint256"
        }
      ],
      "name": "playersArray",
      "outputs": [
        {
          "internalType": "address",
          "name": "",
          "type": "address"
        }
      ],
      "stateMutability": "view",
      "type": "function"
    },
    {
      "inputs": [],
      "name": "prevPrizePool",
      "outputs": [
        {
          "internalType": "uint256",
          "name": "",
          "type": "uint256"
        }
      ],
      "stateMutability": "view",
      "type": "function"
    },
    {
      "inputs": [],
      "name": "prevWinningTicket",
      "outputs": [
        {
          "internalType": "uint256",
          "name": "",
          "type": "uint256"
        }
      ],
      "stateMutability": "view",
      "type": "function"
    },
    {
      "inputs": [],
      "name": "prizePool",
      "outputs": [
        {
          "internalType": "uint256",
          "name": "",
          "type": "uint256"
        }
      ],
      "stateMutability": "view",
      "type": "function"
    },
    {
      "inputs": [],
      "name": "renounceOwnership",
      "outputs": [],
      "stateMutability": "nonpayable",
      "type": "function"
    },
    {
      "inputs": [
        {
          "internalType": "bytes32",
          "name": "role",
          "type": "bytes32"
        },
        {
          "internalType": "address",
          "name": "account",
          "type": "address"
        }
      ],
      "name": "renounceRole",
      "outputs": [],
      "stateMutability": "nonpayable",
      "type": "function"
    },
    {
      "inputs": [
        {
          "internalType": "bytes32",
          "name": "role",
          "type": "bytes32"
        },
        {
          "internalType": "address",
          "name": "account",
          "type": "address"
        }
      ],
      "name": "revokeRole",
      "outputs": [],
      "stateMutability": "nonpayable",
      "type": "function"
    },
    {
      "inputs": [
        {
          "internalType": "bytes4",
          "name": "interfaceId",
          "type": "bytes4"
        }
      ],
      "name": "supportsInterface",
      "outputs": [
        {
          "internalType": "bool",
          "name": "",
          "type": "bool"
        }
      ],
      "stateMutability": "view",
      "type": "function"
    },
    {
      "inputs": [],
      "name": "ticketCounter",
      "outputs": [
        {
          "internalType": "uint256",
          "name": "",
          "type": "uint256"
        }
      ],
      "stateMutability": "view",
      "type": "function"
    },
    {
      "inputs": [],
      "name": "ticketPrice",
      "outputs": [
        {
          "internalType": "uint256",
          "name": "",
          "type": "uint256"
        }
      ],
      "stateMutability": "view",
      "type": "function"
    },
    {
      "inputs": [
        {
          "internalType": "address",
          "name": "newOwner",
          "type": "address"
        }
      ],
      "name": "transferOwnership",
      "outputs": [],
      "stateMutability": "nonpayable",
      "type": "function"
    },
    {
      "inputs": [],
      "name": "usageFees",
      "outputs": [
        {
          "internalType": "uint256",
          "name": "",
          "type": "uint256"
        }
      ],
      "stateMutability": "view",
      "type": "function"
    },
    {
      "inputs": [
        {
          "internalType": "address",
          "name": "tokenAddress",
          "type": "address"
        }
      ],
      "name": "withdrawFees",
      "outputs": [],
      "stateMutability": "nonpayable",
      "type": "function"
    }
  ],
  "bytecode": "0x60806040523480156200001157600080fd5b506000620000246200014860201b60201c565b9050806000806101000a81548173ffffffffffffffffffffffffffffffffffffffff021916908373ffffffffffffffffffffffffffffffffffffffff1602179055508073ffffffffffffffffffffffffffffffffffffffff16600073ffffffffffffffffffffffffffffffffffffffff167f8be0079c531659141344cd1fd0a4f28419497f9722a3daafe3b4186f6b6457e060405160405180910390a350620001037f950b8f2d7415defaee398bb4898e8e094a64c725873b81952b7ab9f08d70efb3620000f76200015060201b60201c565b6200017960201b60201c565b6002600181600181540180825580915050039060005260206000200160009054906101000a9050506801158e460913d0000060088190555042600a81905550620002eb565b600033905090565b60008060009054906101000a900473ffffffffffffffffffffffffffffffffffffffff16905090565b6200018b82826200018f60201b60201c565b5050565b620001a182826200028060201b60201c565b6200027c57600180600084815260200190815260200160002060000160008373ffffffffffffffffffffffffffffffffffffffff1673ffffffffffffffffffffffffffffffffffffffff16815260200190815260200160002060006101000a81548160ff021916908315150217905550620002216200014860201b60201c565b73ffffffffffffffffffffffffffffffffffffffff168173ffffffffffffffffffffffffffffffffffffffff16837f2f8788117e7eff1d82e926ec794901d17c78024a50270940304540a733656f0d60405160405180910390a45b5050565b60006001600084815260200190815260200160002060000160008373ffffffffffffffffffffffffffffffffffffffff1673ffffffffffffffffffffffffffffffffffffffff16815260200190815260200160002060009054906101000a900460ff16905092915050565b61240a80620002fb6000396000f3fe608060405234801561001057600080fd5b50600436106101735760003560e01c80638c4d59d0116100de578063d547741f11610097578063e932406f11610071578063e932406f14610428578063f212a12614610446578063f2fde38b14610462578063f8d33a011461047e57610173565b8063d547741f146103d0578063d7ff713a146103ec578063e1d10d851461040a57610173565b80638c4d59d01461030c5780638da5cb5b1461032a57806391d1485414610348578063a217fddf14610378578063c5a8b47014610396578063ce0617ec146103b257610173565b806344d855f11161013057806344d855f11461024a5780635cc1b40c1461027a5780636001e640146102aa578063715018a6146102c8578063719ce73e146102d25780637e348b7d146102f057610173565b806301ffc9a7146101785780631209b1f6146101a8578063164e68de146101c6578063248a9ca3146101e25780632f2ff15d1461021257806336568abe1461022e575b600080fd5b610192600480360381019061018d9190611a48565b61049c565b60405161019f9190611dd4565b60405180910390f35b6101b0610516565b6040516101bd9190611ecc565b60405180910390f35b6101e060048036038101906101db9190611919565b61051c565b005b6101fc60048036038101906101f791906119e3565b61063a565b6040516102099190611def565b60405180910390f35b61022c60048036038101906102279190611a0c565b61065a565b005b61024860048036038101906102439190611a0c565b610683565b005b610264600480360381019061025f919061197e565b610706565b6040516102719190611ecc565b60405180910390f35b610294600480360381019061028f9190611a71565b610737565b6040516102a19190611d37565b60405180910390f35b6102b2610776565b6040516102bf9190611ecc565b60405180910390f35b6102d061077c565b005b6102da6108b6565b6040516102e79190611ecc565b60405180910390f35b61030a6004803603810190610305919061197e565b6108bc565b005b6103146109e8565b6040516103219190611ecc565b60405180910390f35b6103326109ee565b60405161033f9190611d37565b60405180910390f35b610362600480360381019061035d9190611a0c565b610a17565b60405161036f9190611dd4565b60405180910390f35b610380610a82565b60405161038d9190611def565b60405180910390f35b6103b060048036038101906103ab9190611919565b610a89565b005b6103ba610ca9565b6040516103c79190611ecc565b60405180910390f35b6103ea60048036038101906103e59190611a0c565b610caf565b005b6103f4610cd8565b6040516104019190611ecc565b60405180910390f35b610412610cde565b60405161041f9190611db2565b60405180910390f35b610430610d73565b60405161043d9190611def565b60405180910390f35b610460600480360381019061045b9190611942565b610d97565b005b61047c60048036038101906104779190611919565b610e6b565b005b610486611014565b6040516104939190611ecc565b60405180910390f35b60007f7965db0b000000000000000000000000000000000000000000000000000000007bffffffffffffffffffffffffffffffffffffffffffffffffffffffff1916827bffffffffffffffffffffffffffffffffffffffffffffffffffffffff1916148061050f575061050e8261101a565b5b9050919050565b60085481565b610524611084565b73ffffffffffffffffffffffffffffffffffffffff166105426109ee565b73ffffffffffffffffffffffffffffffffffffffff1614610598576040517f08c379a000000000000000000000000000000000000000000000000000000000815260040161058f90611e8c565b60405180910390fd5b8073ffffffffffffffffffffffffffffffffffffffff1663a9059cbb6105bc6109ee565b6009546040518363ffffffff1660e01b81526004016105dc929190611d89565b602060405180830381600087803b1580156105f657600080fd5b505af115801561060a573d6000803e3d6000fd5b505050506040513d601f19601f8201168201806040525081019061062e91906119ba565b50600060098190555050565b600060016000838152602001908152602001600020600101549050919050565b6106638261063a565b6106748161066f611084565b61108c565b61067e8383611129565b505050565b61068b611084565b73ffffffffffffffffffffffffffffffffffffffff168173ffffffffffffffffffffffffffffffffffffffff16146106f8576040517f08c379a00000000000000000000000000000000000000000000000000000000081526004016106ef90611eac565b60405180910390fd5b6107028282611209565b5050565b6003602052816000526040600020818154811061072257600080fd5b90600052602060002001600091509150505481565b6002818154811061074757600080fd5b906000526020600020016000915054906101000a900473ffffffffffffffffffffffffffffffffffffffff1681565b60075481565b610784611084565b73ffffffffffffffffffffffffffffffffffffffff166107a26109ee565b73ffffffffffffffffffffffffffffffffffffffff16146107f8576040517f08c379a00000000000000000000000000000000000000000000000000000000081526004016107ef90611e8c565b60405180910390fd5b600073ffffffffffffffffffffffffffffffffffffffff1660008054906101000a900473ffffffffffffffffffffffffffffffffffffffff1673ffffffffffffffffffffffffffffffffffffffff167f8be0079c531659141344cd1fd0a4f28419497f9722a3daafe3b4186f6b6457e060405160405180910390a360008060006101000a81548173ffffffffffffffffffffffffffffffffffffffff021916908373ffffffffffffffffffffffffffffffffffffffff160217905550565b60065481565b600a5442116108ca57600080fd5b6000600854826108da9190611fce565b90508273ffffffffffffffffffffffffffffffffffffffff166323b872dd3330846040518463ffffffff1660e01b815260040161091993929190611d52565b602060405180830381600087803b15801561093357600080fd5b505af1158015610947573d6000803e3d6000fd5b505050506040513d601f19601f8201168201806040525081019061096b91906119ba565b5060005b828110156109925761097f6112eb565b808061098a90612103565b91505061096f565b5080600660008282546109a59190611f47565b925050819055507fe94d0e2f1a2c072b5ba131e11f785b433c81f7051cd4f47c87fb151932c3d7d4426040516109db9190611ecc565b60405180910390a1505050565b60045481565b60008060009054906101000a900473ffffffffffffffffffffffffffffffffffffffff16905090565b60006001600084815260200190815260200160002060000160008373ffffffffffffffffffffffffffffffffffffffff1673ffffffffffffffffffffffffffffffffffffffff16815260200190815260200160002060009054906101000a900460ff16905092915050565b6000801b81565b610ab37f950b8f2d7415defaee398bb4898e8e094a64c725873b81952b7ab9f08d70efb333610a17565b610af2576040517f08c379a0000000000000000000000000000000000000000000000000000000008152600401610ae990611e6c565b60405180910390fd5b600a544211610b0057600080fd5b61012c42610b0e9190611f47565b600a819055506000610b1e6113d0565b90508173ffffffffffffffffffffffffffffffffffffffff1663a9059cbb60028381548110610b76577f4e487b7100000000000000000000000000000000000000000000000000000000600052603260045260246000fd5b9060005260206000200160009054906101000a900473ffffffffffffffffffffffffffffffffffffffff16605f6064600654610bb29190611f9d565b610bbc9190611fce565b6040518363ffffffff1660e01b8152600401610bd9929190611d89565b602060405180830381600087803b158015610bf357600080fd5b505af1158015610c07573d6000803e3d6000fd5b505050506040513d601f19601f82011682018060405250810190610c2b91906119ba565b5060056064600654610c3d9190611f9d565b610c479190611fce565b60096000828254610c589190611f47565b9250508190555080600581905550610c6e611421565b7fe94d0e2f1a2c072b5ba131e11f785b433c81f7051cd4f47c87fb151932c3d7d442604051610c9d9190611ecc565b60405180910390a15050565b600a5481565b610cb88261063a565b610cc981610cc4611084565b61108c565b610cd38383611209565b505050565b60095481565b6060600360003373ffffffffffffffffffffffffffffffffffffffff1673ffffffffffffffffffffffffffffffffffffffff168152602001908152602001600020805480602002602001604051908101604052809291908181526020018280548015610d6957602002820191906000526020600020905b815481526020019060010190808311610d55575b5050505050905090565b7f950b8f2d7415defaee398bb4898e8e094a64c725873b81952b7ab9f08d70efb381565b610d9f611084565b73ffffffffffffffffffffffffffffffffffffffff16610dbd6109ee565b73ffffffffffffffffffffffffffffffffffffffff1614610e13576040517f08c379a0000000000000000000000000000000000000000000000000000000008152600401610e0a90611e8c565b60405180910390fd5b610e3d7f950b8f2d7415defaee398bb4898e8e094a64c725873b81952b7ab9f08d70efb383611549565b610e677f950b8f2d7415defaee398bb4898e8e094a64c725873b81952b7ab9f08d70efb382611549565b5050565b610e73611084565b73ffffffffffffffffffffffffffffffffffffffff16610e916109ee565b73ffffffffffffffffffffffffffffffffffffffff1614610ee7576040517f08c379a0000000000000000000000000000000000000000000000000000000008152600401610ede90611e8c565b60405180910390fd5b600073ffffffffffffffffffffffffffffffffffffffff168173ffffffffffffffffffffffffffffffffffffffff161415610f57576040517f08c379a0000000000000000000000000000000000000000000000000000000008152600401610f4e90611e4c565b60405180910390fd5b8073ffffffffffffffffffffffffffffffffffffffff1660008054906101000a900473ffffffffffffffffffffffffffffffffffffffff1673ffffffffffffffffffffffffffffffffffffffff167f8be0079c531659141344cd1fd0a4f28419497f9722a3daafe3b4186f6b6457e060405160405180910390a3806000806101000a81548173ffffffffffffffffffffffffffffffffffffffff021916908373ffffffffffffffffffffffffffffffffffffffff16021790555050565b60055481565b60007f01ffc9a7000000000000000000000000000000000000000000000000000000007bffffffffffffffffffffffffffffffffffffffffffffffffffffffff1916827bffffffffffffffffffffffffffffffffffffffffffffffffffffffff1916149050919050565b600033905090565b6110968282610a17565b611125576110bb8173ffffffffffffffffffffffffffffffffffffffff166014611557565b6110c98360001c6020611557565b6040516020016110da929190611cd1565b6040516020818303038152906040526040517f08c379a000000000000000000000000000000000000000000000000000000000815260040161111c9190611e0a565b60405180910390fd5b5050565b6111338282610a17565b61120557600180600084815260200190815260200160002060000160008373ffffffffffffffffffffffffffffffffffffffff1673ffffffffffffffffffffffffffffffffffffffff16815260200190815260200160002060006101000a81548160ff0219169083151502179055506111aa611084565b73ffffffffffffffffffffffffffffffffffffffff168173ffffffffffffffffffffffffffffffffffffffff16837f2f8788117e7eff1d82e926ec794901d17c78024a50270940304540a733656f0d60405160405180910390a45b5050565b6112138282610a17565b156112e75760006001600084815260200190815260200160002060000160008373ffffffffffffffffffffffffffffffffffffffff1673ffffffffffffffffffffffffffffffffffffffff16815260200190815260200160002060006101000a81548160ff02191690831515021790555061128c611084565b73ffffffffffffffffffffffffffffffffffffffff168173ffffffffffffffffffffffffffffffffffffffff16837ff6391f5c32d9c69d2a47ea670b442974b53935d1edc7fd64eb21e047a839171b60405160405180910390a45b5050565b600460008154809291906112fe90612103565b91905055506002339080600181540180825580915050600190039060005260206000200160009091909190916101000a81548173ffffffffffffffffffffffffffffffffffffffff021916908373ffffffffffffffffffffffffffffffffffffffff160217905550600360003373ffffffffffffffffffffffffffffffffffffffff1673ffffffffffffffffffffffffffffffffffffffff1681526020019081526020016000206004549080600181540180825580915050600190039060005260206000200160009091909190915055565b60008044426040516020016113e6929190611d0b565b6040516020818303038152906040528051906020012060001c90506001600454826114119190612156565b61141b9190611f47565b91505090565b600654600781905550600060068190555060006004819055506000600190505b60028054905081101561151057600360006002838154811061148c577f4e487b7100000000000000000000000000000000000000000000000000000000600052603260045260246000fd5b9060005260206000200160009054906101000a900473ffffffffffffffffffffffffffffffffffffffff1673ffffffffffffffffffffffffffffffffffffffff1673ffffffffffffffffffffffffffffffffffffffff16815260200190815260200160002060006114fd9190611851565b808061150890612103565b915050611441565b506002600061151f9190611872565b6002600181600181540180825580915050039060005260206000200160009054906101000a905050565b6115538282611129565b5050565b60606000600283600261156a9190611fce565b6115749190611f47565b67ffffffffffffffff8111156115b3577f4e487b7100000000000000000000000000000000000000000000000000000000600052604160045260246000fd5b6040519080825280601f01601f1916602001820160405280156115e55781602001600182028036833780820191505090505b5090507f300000000000000000000000000000000000000000000000000000000000000081600081518110611643577f4e487b7100000000000000000000000000000000000000000000000000000000600052603260045260246000fd5b60200101907effffffffffffffffffffffffffffffffffffffffffffffffffffffffffffff1916908160001a9053507f7800000000000000000000000000000000000000000000000000000000000000816001815181106116cd577f4e487b7100000000000000000000000000000000000000000000000000000000600052603260045260246000fd5b60200101907effffffffffffffffffffffffffffffffffffffffffffffffffffffffffffff1916908160001a9053506000600184600261170d9190611fce565b6117179190611f47565b90505b6001811115611803577f3031323334353637383961626364656600000000000000000000000000000000600f86166010811061177f577f4e487b7100000000000000000000000000000000000000000000000000000000600052603260045260246000fd5b1a60f81b8282815181106117bc577f4e487b7100000000000000000000000000000000000000000000000000000000600052603260045260246000fd5b60200101907effffffffffffffffffffffffffffffffffffffffffffffffffffffffffffff1916908160001a905350600485901c9450806117fc906120d9565b905061171a565b5060008414611847576040517f08c379a000000000000000000000000000000000000000000000000000000000815260040161183e90611e2c565b60405180910390fd5b8091505092915050565b508054600082559060005260206000209081019061186f9190611893565b50565b50805460008255906000526020600020908101906118909190611893565b50565b5b808211156118ac576000816000905550600101611894565b5090565b6000813590506118bf81612361565b92915050565b6000815190506118d481612378565b92915050565b6000813590506118e98161238f565b92915050565b6000813590506118fe816123a6565b92915050565b600081359050611913816123bd565b92915050565b60006020828403121561192b57600080fd5b6000611939848285016118b0565b91505092915050565b6000806040838503121561195557600080fd5b6000611963858286016118b0565b9250506020611974858286016118b0565b9150509250929050565b6000806040838503121561199157600080fd5b600061199f858286016118b0565b92505060206119b085828601611904565b9150509250929050565b6000602082840312156119cc57600080fd5b60006119da848285016118c5565b91505092915050565b6000602082840312156119f557600080fd5b6000611a03848285016118da565b91505092915050565b60008060408385031215611a1f57600080fd5b6000611a2d858286016118da565b9250506020611a3e858286016118b0565b9150509250929050565b600060208284031215611a5a57600080fd5b6000611a68848285016118ef565b91505092915050565b600060208284031215611a8357600080fd5b6000611a9184828501611904565b91505092915050565b6000611aa68383611c9c565b60208301905092915050565b611abb81612028565b82525050565b6000611acc82611ef7565b611ad68185611f1a565b9350611ae183611ee7565b8060005b83811015611b12578151611af98882611a9a565b9750611b0483611f0d565b925050600181019050611ae5565b5085935050505092915050565b611b288161203a565b82525050565b611b3781612046565b82525050565b6000611b4882611f02565b611b528185611f2b565b9350611b628185602086016120a6565b611b6b816121e5565b840191505092915050565b6000611b8182611f02565b611b8b8185611f3c565b9350611b9b8185602086016120a6565b80840191505092915050565b6000611bb4602083611f2b565b9150611bbf826121f6565b602082019050919050565b6000611bd7602683611f2b565b9150611be28261221f565b604082019050919050565b6000611bfa601483611f2b565b9150611c058261226e565b602082019050919050565b6000611c1d602083611f2b565b9150611c2882612297565b602082019050919050565b6000611c40601783611f3c565b9150611c4b826122c0565b601782019050919050565b6000611c63601183611f3c565b9150611c6e826122e9565b601182019050919050565b6000611c86602f83611f2b565b9150611c9182612312565b604082019050919050565b611ca58161209c565b82525050565b611cb48161209c565b82525050565b611ccb611cc68261209c565b61214c565b82525050565b6000611cdc82611c33565b9150611ce88285611b76565b9150611cf382611c56565b9150611cff8284611b76565b91508190509392505050565b6000611d178285611cba565b602082019150611d278284611cba565b6020820191508190509392505050565b6000602082019050611d4c6000830184611ab2565b92915050565b6000606082019050611d676000830186611ab2565b611d746020830185611ab2565b611d816040830184611cab565b949350505050565b6000604082019050611d9e6000830185611ab2565b611dab6020830184611cab565b9392505050565b60006020820190508181036000830152611dcc8184611ac1565b905092915050565b6000602082019050611de96000830184611b1f565b92915050565b6000602082019050611e046000830184611b2e565b92915050565b60006020820190508181036000830152611e248184611b3d565b905092915050565b60006020820190508181036000830152611e4581611ba7565b9050919050565b60006020820190508181036000830152611e6581611bca565b9050919050565b60006020820190508181036000830152611e8581611bed565b9050919050565b60006020820190508181036000830152611ea581611c10565b9050919050565b60006020820190508181036000830152611ec581611c79565b9050919050565b6000602082019050611ee16000830184611cab565b92915050565b6000819050602082019050919050565b600081519050919050565b600081519050919050565b6000602082019050919050565b600082825260208201905092915050565b600082825260208201905092915050565b600081905092915050565b6000611f528261209c565b9150611f5d8361209c565b9250827fffffffffffffffffffffffffffffffffffffffffffffffffffffffffffffffff03821115611f9257611f91612187565b5b828201905092915050565b6000611fa88261209c565b9150611fb38361209c565b925082611fc357611fc26121b6565b5b828204905092915050565b6000611fd98261209c565b9150611fe48361209c565b9250817fffffffffffffffffffffffffffffffffffffffffffffffffffffffffffffffff048311821515161561201d5761201c612187565b5b828202905092915050565b60006120338261207c565b9050919050565b60008115159050919050565b6000819050919050565b60007fffffffff0000000000000000000000000000000000000000000000000000000082169050919050565b600073ffffffffffffffffffffffffffffffffffffffff82169050919050565b6000819050919050565b60005b838110156120c45780820151818401526020810190506120a9565b838111156120d3576000848401525b50505050565b60006120e48261209c565b915060008214156120f8576120f7612187565b5b600182039050919050565b600061210e8261209c565b91507fffffffffffffffffffffffffffffffffffffffffffffffffffffffffffffffff82141561214157612140612187565b5b600182019050919050565b6000819050919050565b60006121618261209c565b915061216c8361209c565b92508261217c5761217b6121b6565b5b828206905092915050565b7f4e487b7100000000000000000000000000000000000000000000000000000000600052601160045260246000fd5b7f4e487b7100000000000000000000000000000000000000000000000000000000600052601260045260246000fd5b6000601f19601f8301169050919050565b7f537472696e67733a20686578206c656e67746820696e73756666696369656e74600082015250565b7f4f776e61626c653a206e6577206f776e657220697320746865207a65726f206160008201527f6464726573730000000000000000000000000000000000000000000000000000602082015250565b7f43616c6c6572206d7573742062652061206d6f64000000000000000000000000600082015250565b7f4f776e61626c653a2063616c6c6572206973206e6f7420746865206f776e6572600082015250565b7f416363657373436f6e74726f6c3a206163636f756e7420000000000000000000600082015250565b7f206973206d697373696e6720726f6c6520000000000000000000000000000000600082015250565b7f416363657373436f6e74726f6c3a2063616e206f6e6c792072656e6f756e636560008201527f20726f6c657320666f722073656c660000000000000000000000000000000000602082015250565b61236a81612028565b811461237557600080fd5b50565b6123818161203a565b811461238c57600080fd5b50565b61239881612046565b81146123a357600080fd5b50565b6123af81612050565b81146123ba57600080fd5b50565b6123c68161209c565b81146123d157600080fd5b5056fea2646970667358221220da1c85db554ca04e52efea0aa48a112e8926a132c03480b996551b6802060d0e64736f6c63430008040033",
  "linkReferences": {},
  "deployedLinkReferences": {}
}